{
  "contractName": "UserStorage",
  "abi": [
    {
      "constant": false,
      "inputs": [],
      "name": "addUser",
      "outputs": [],
      "payable": false,
      "stateMutability": "nonpayable",
      "type": "function",
      "signature": "0x455c928c"
    },
    {
      "constant": true,
      "inputs": [
        {
          "name": "user",
          "type": "address"
        }
      ],
      "name": "getArticleCount",
      "outputs": [
        {
          "name": "",
          "type": "uint256"
        }
      ],
      "payable": false,
      "stateMutability": "view",
      "type": "function",
      "signature": "0xb51b2e0d"
    },
    {
      "constant": false,
      "inputs": [
        {
          "name": "hash",
          "type": "string"
        }
      ],
      "name": "addArticle",
      "outputs": [],
      "payable": false,
      "stateMutability": "nonpayable",
      "type": "function",
      "signature": "0x0c971a46"
    },
    {
      "constant": true,
      "inputs": [
        {
          "name": "user",
          "type": "address"
        },
        {
          "name": "index",
          "type": "uint256"
        }
      ],
      "name": "getArticle",
      "outputs": [
        {
          "name": "",
          "type": "string"
        }
      ],
      "payable": false,
      "stateMutability": "view",
      "type": "function",
      "signature": "0x9022e01b"
    }
  ],
  "bytecode": "0x608060405234801561001057600080fd5b50610771806100206000396000f3fe608060405260043610610062576000357c0100000000000000000000000000000000000000000000000000000000900463ffffffff1680630c971a4614610067578063455c928c1461012f5780639022e01b14610146578063b51b2e0d1461021a575b600080fd5b34801561007357600080fd5b5061012d6004803603602081101561008a57600080fd5b81019080803590602001906401000000008111156100a757600080fd5b8201836020820111156100b957600080fd5b803590602001918460018302840111640100000000831117156100db57600080fd5b91908080601f016020809104026020016040519081016040528093929190818152602001838380828437600081840152601f19601f82011690508083019250505050505050919291929050505061027f565b005b34801561013b57600080fd5b50610144610351565b005b34801561015257600080fd5b5061019f6004803603604081101561016957600080fd5b81019080803573ffffffffffffffffffffffffffffffffffffffff16906020019092919080359060200190929190505050610406565b6040518080602001828103825283818151815260200191508051906020019080838360005b838110156101df5780820151818401526020810190506101c4565b50505050905090810190601f16801561020c5780820380516001836020036101000a031916815260200191505b509250505060405180910390f35b34801561022657600080fd5b506102696004803603602081101561023d57600080fd5b81019080803573ffffffffffffffffffffffffffffffffffffffff169060200190929190505050610501565b6040518082815260200191505060405180910390f35b6000803373ffffffffffffffffffffffffffffffffffffffff1673ffffffffffffffffffffffffffffffffffffffff168152602001908152602001600020600001600081548092919060010191905055506000803373ffffffffffffffffffffffffffffffffffffffff1673ffffffffffffffffffffffffffffffffffffffff16815260200190815260200160002060010181908060018154018082558091505090600182039060005260206000200160009091929091909150908051906020019061034c92919061054c565b505050565b604080519081016040528060008152602001600060405190808252806020026020018201604052801561039857816020015b60608152602001906001900390816103835790505b508152506000803373ffffffffffffffffffffffffffffffffffffffff1673ffffffffffffffffffffffffffffffffffffffff1681526020019081526020016000206000820151816000015560208201518160010190805190602001906104009291906105cc565b50905050565b60606000808473ffffffffffffffffffffffffffffffffffffffff1673ffffffffffffffffffffffffffffffffffffffff1681526020019081526020016000206001018281548110151561045657fe5b906000526020600020018054600181600116156101000203166002900480601f0160208091040260200160405190810160405280929190818152602001828054600181600116156101000203166002900480156104f45780601f106104c9576101008083540402835291602001916104f4565b820191906000526020600020905b8154815290600101906020018083116104d757829003601f168201915b5050505050905092915050565b60008060008373ffffffffffffffffffffffffffffffffffffffff1673ffffffffffffffffffffffffffffffffffffffff168152602001908152602001600020600001549050919050565b828054600181600116156101000203166002900490600052602060002090601f016020900481019282601f1061058d57805160ff19168380011785556105bb565b828001600101855582156105bb579182015b828111156105ba57825182559160200191906001019061059f565b5b5090506105c8919061062c565b5090565b82805482825590600052602060002090810192821561061b579160200282015b8281111561061a57825182908051906020019061060a929190610651565b50916020019190600101906105ec565b5b50905061062891906106d1565b5090565b61064e91905b8082111561064a576000816000905550600101610632565b5090565b90565b828054600181600116156101000203166002900490600052602060002090601f016020900481019282601f1061069257805160ff19168380011785556106c0565b828001600101855582156106c0579182015b828111156106bf5782518255916020019190600101906106a4565b5b5090506106cd919061062c565b5090565b6106fa91905b808211156106f657600081816106ed91906106fd565b506001016106d7565b5090565b90565b50805460018160011615610100020316600290046000825580601f106107235750610742565b601f016020900490600052602060002090810190610741919061062c565b5b5056fea165627a7a723058200f44dc1ec59c07020271e3bd7090edc47600b5e21013a0b70c59bee4a010e9a60029",
  "source": "pragma solidity ^0.5.0;\n\ncontract UserStorage {\n  struct User {\n    uint articleCount;\n    string[] articles;\n  }\n\n  mapping(address => User) users;\n\n  function addUser() public {\n    users[msg.sender] = User(0, new string[](0));\n  }\n  function getArticleCount(address user) public view returns (uint) {\n    return users[user].articleCount;\n  }\n  function addArticle(string memory hash) public {\n      users[msg.sender].articleCount++;\n      users[msg.sender].articles.push(hash);\n  }\n  function getArticle(address user, uint index) public view returns(string memory) {\n      return users[user].articles[index];\n  }\n}",
  "sourcePath": "/Users/josh/School/CMPE133/BlogChain/src/blockchain/contracts/UserStorage.sol",
  "compiler": {
    "name": "solc",
    "version": "0.5.0+commit.1d4f565a.Emscripten.clang"
  },
  "schemaVersion": "3.0.6",
  "updatedAt": "2019-05-10T16:52:33.393Z",
  "devdoc": {
    "methods": {}
  },
  "userdoc": {
    "methods": {}
  }
}