{
  "contractName": "UserStorage",
  "abi": [
    {
      "anonymous": false,
      "inputs": [
        {
          "indexed": false,
          "name": "newUser",
          "type": "address"
        }
      ],
      "name": "newUserAdded",
      "type": "event"
    },
    {
      "constant": false,
      "inputs": [],
      "name": "addUser",
      "outputs": [],
      "payable": false,
      "stateMutability": "nonpayable",
      "type": "function"
    },
    {
      "constant": true,
      "inputs": [],
      "name": "checkIfUserExists",
      "outputs": [
        {
          "name": "",
          "type": "bool"
        }
      ],
      "payable": false,
      "stateMutability": "view",
      "type": "function"
    },
    {
      "constant": true,
      "inputs": [
        {
          "name": "user",
          "type": "address"
        }
      ],
      "name": "getArticleCount",
      "outputs": [
        {
          "name": "",
          "type": "uint256"
        }
      ],
      "payable": false,
      "stateMutability": "view",
      "type": "function"
    }
  ],
  "bytecode": "0x608060405234801561001057600080fd5b5061029b806100206000396000f3fe608060405260043610610057576000357c0100000000000000000000000000000000000000000000000000000000900463ffffffff168063455c928c1461005c578063b51b2e0d14610073578063dff6fbaf146100d8575b600080fd5b34801561006857600080fd5b50610071610107565b005b34801561007f57600080fd5b506100c26004803603602081101561009657600080fd5b81019080803573ffffffffffffffffffffffffffffffffffffffff1690602001909291905050506101c8565b6040518082815260200191505060405180910390f35b3480156100e457600080fd5b506100ed610213565b604051808215151515815260200191505060405180910390f35b60206040519081016040528060008152506000803373ffffffffffffffffffffffffffffffffffffffff1673ffffffffffffffffffffffffffffffffffffffff168152602001908152602001600020600082015181600001559050507f93aba91dfa130e424061d1601941fb4d1c8d5e7df4bfb3138447f8e771c9a6de33604051808273ffffffffffffffffffffffffffffffffffffffff1673ffffffffffffffffffffffffffffffffffffffff16815260200191505060405180910390a1565b60008060008373ffffffffffffffffffffffffffffffffffffffff1673ffffffffffffffffffffffffffffffffffffffff168152602001908152602001600020600001549050919050565b6000806000803373ffffffffffffffffffffffffffffffffffffffff1673ffffffffffffffffffffffffffffffffffffffff168152602001908152602001600020600001541415610267576001905061026c565b600090505b9056fea165627a7a72305820cbc84d35573c6d8f3fa35ce63e1f11fb05c5c3ee9b15a3ddd7774d8162e769c20029",
  "source": "pragma solidity ^0.5.0;\n\ncontract UserStorage {\n  struct User {\n    uint articleCount;\n  }\n\n  event newUserAdded(address newUser);\n\n  mapping(address => User) users;\n\n  function addUser() public {\n    users[msg.sender] = User(0);\n    emit newUserAdded(msg.sender);\n  }\n\n  function checkIfUserExists() public view returns (bool) {\n    if(users[msg.sender].articleCount == 0) {\n      return true;\n    } else {\n      return false;\n    }\n  }\n\n  function getArticleCount(address user) public view returns (uint) {\n    return users[user].articleCount;\n  }\n}",
  "sourcePath": "C:/Users/joshu/source/repos/BlogChain/src/blockchain/contracts/UserStorage.sol",
  "compiler": {
    "name": "solc",
    "version": "0.5.0+commit.1d4f565a.Emscripten.clang"
  },
  "schemaVersion": "3.0.1",
  "updatedAt": "2019-03-28T16:10:59.956Z",
  "devdoc": {
    "methods": {}
  },
  "userdoc": {
    "methods": {}
  }
}