{
  "contractName": "UserStorage",
  "abi": [
    {
      "constant": false,
      "inputs": [],
      "name": "addUser",
      "outputs": [],
      "payable": false,
      "stateMutability": "nonpayable",
      "type": "function",
      "signature": "0x455c928c"
    },
    {
      "constant": true,
      "inputs": [
        {
          "name": "user",
          "type": "address"
        }
      ],
      "name": "getArticleCount",
      "outputs": [
        {
          "name": "",
          "type": "uint256"
        }
      ],
      "payable": false,
      "stateMutability": "view",
      "type": "function",
      "signature": "0xb51b2e0d"
    },
    {
      "constant": false,
      "inputs": [
        {
          "name": "hash",
          "type": "string"
        }
      ],
      "name": "addArticle",
      "outputs": [],
      "payable": false,
      "stateMutability": "nonpayable",
      "type": "function",
      "signature": "0x0c971a46"
    },
    {
      "constant": true,
      "inputs": [
        {
          "name": "index",
          "type": "uint256"
        }
      ],
      "name": "getArticle",
      "outputs": [
        {
          "name": "",
          "type": "string"
        }
      ],
      "payable": false,
      "stateMutability": "view",
      "type": "function",
      "signature": "0xbd85d867"
    }
  ],
  "bytecode": "0x608060405234801561001057600080fd5b50610750806100206000396000f3fe608060405260043610610062576000357c0100000000000000000000000000000000000000000000000000000000900463ffffffff1680630c971a4614610067578063455c928c1461012f578063b51b2e0d14610146578063bd85d867146101ab575b600080fd5b34801561007357600080fd5b5061012d6004803603602081101561008a57600080fd5b81019080803590602001906401000000008111156100a757600080fd5b8201836020820111156100b957600080fd5b803590602001918460018302840111640100000000831117156100db57600080fd5b91908080601f016020809104026020016040519081016040528093929190818152602001838380828437600081840152601f19601f82011690508083019250505050505050919291929050505061025f565b005b34801561013b57600080fd5b50610144610331565b005b34801561015257600080fd5b506101956004803603602081101561016957600080fd5b81019080803573ffffffffffffffffffffffffffffffffffffffff1690602001909291905050506103e6565b6040518082815260200191505060405180910390f35b3480156101b757600080fd5b506101e4600480360360208110156101ce57600080fd5b8101908080359060200190929190505050610431565b6040518080602001828103825283818151815260200191508051906020019080838360005b83811015610224578082015181840152602081019050610209565b50505050905090810190601f1680156102515780820380516001836020036101000a031916815260200191505b509250505060405180910390f35b6000803373ffffffffffffffffffffffffffffffffffffffff1673ffffffffffffffffffffffffffffffffffffffff168152602001908152602001600020600001600081548092919060010191905055506000803373ffffffffffffffffffffffffffffffffffffffff1673ffffffffffffffffffffffffffffffffffffffff16815260200190815260200160002060010181908060018154018082558091505090600182039060005260206000200160009091929091909150908051906020019061032c92919061052b565b505050565b604080519081016040528060008152602001600060405190808252806020026020018201604052801561037857816020015b60608152602001906001900390816103635790505b508152506000803373ffffffffffffffffffffffffffffffffffffffff1673ffffffffffffffffffffffffffffffffffffffff1681526020019081526020016000206000820151816000015560208201518160010190805190602001906103e09291906105ab565b50905050565b60008060008373ffffffffffffffffffffffffffffffffffffffff1673ffffffffffffffffffffffffffffffffffffffff168152602001908152602001600020600001549050919050565b60606000803373ffffffffffffffffffffffffffffffffffffffff1673ffffffffffffffffffffffffffffffffffffffff1681526020019081526020016000206001018281548110151561048157fe5b906000526020600020018054600181600116156101000203166002900480601f01602080910402602001604051908101604052809291908181526020018280546001816001161561010002031660029004801561051f5780601f106104f45761010080835404028352916020019161051f565b820191906000526020600020905b81548152906001019060200180831161050257829003601f168201915b50505050509050919050565b828054600181600116156101000203166002900490600052602060002090601f016020900481019282601f1061056c57805160ff191683800117855561059a565b8280016001018555821561059a579182015b8281111561059957825182559160200191906001019061057e565b5b5090506105a7919061060b565b5090565b8280548282559060005260206000209081019282156105fa579160200282015b828111156105f95782518290805190602001906105e9929190610630565b50916020019190600101906105cb565b5b50905061060791906106b0565b5090565b61062d91905b80821115610629576000816000905550600101610611565b5090565b90565b828054600181600116156101000203166002900490600052602060002090601f016020900481019282601f1061067157805160ff191683800117855561069f565b8280016001018555821561069f579182015b8281111561069e578251825591602001919060010190610683565b5b5090506106ac919061060b565b5090565b6106d991905b808211156106d557600081816106cc91906106dc565b506001016106b6565b5090565b90565b50805460018160011615610100020316600290046000825580601f106107025750610721565b601f016020900490600052602060002090810190610720919061060b565b5b5056fea165627a7a72305820d95b76ec7660f868074b7e17612dc224836d374c0e93a1d32c3e70cab4f725d00029",
  "source": "pragma solidity ^0.5.0;\n\ncontract UserStorage {\n  struct User {\n    uint articleCount;\n    string[] articles;\n  }\n\n  mapping(address => User) users;\n\n  function addUser() public {\n    users[msg.sender] = User(0, new string[](0));\n  }\n\n  function getArticleCount(address user) public view returns (uint) {\n    return users[user].articleCount;\n  }\n  \n  function addArticle(string memory hash) public {\n      users[msg.sender].articleCount++;\n      users[msg.sender].articles.push(hash);\n  }\n  \n  function getArticle(uint index) public view returns(string memory) {\n      return users[msg.sender].articles[index];\n  }\n  \n}",
  "sourcePath": "/Users/josh/School/CMPE133/BlogChain/src/blockchain/contracts/UserStorage.sol",
  "compiler": {
    "name": "solc",
    "version": "0.5.0+commit.1d4f565a.Emscripten.clang"
  },
  "schemaVersion": "3.0.6",
  "updatedAt": "2019-05-02T23:36:19.076Z",
  "devdoc": {
    "methods": {}
  },
  "userdoc": {
    "methods": {}
  }
}